:020000040000fa
:080000000002040000000000f2
:020000040000fa
:04000800f0080000fc
:020000040000fa
:04000c00b007000039
:020000040000fa
:04001000d007000015
:020000040000fa
:04001400f0070000f1
:020000040000fa
:0400180010080000cc
:020000040000fa
:04001c0030080000a8
:020000040000fa
:04002000f0080000e4
:020000040000fa
:04002400f0080000e0
:020000040000fa
:04002800f0080000dc
:020000040000fa
:04002c0004030000c9
:020000040000fa
:04003000f0080000d4
:020000040000fa
:04003400c206000000
:020000040000fa
:04003800f0080000cc
:020000040000fa
:04003c000e090000a9
:020000040000fa
:04004000f0080000c4
:020000040000fa
:04004400f0080000c0
:020000040000fa
:040048005209000059
:020000040000fa
:04004c00f0080000b8
:020000040000fa
:04005000f0080000b4
:020000040000fa
:04005400de050000c5
:020000040000fa
:04005800f0080000ac
:020000040000fa
:04005c00dc020000c2
:020000040000fa
:04006000f0080000a4
:020000040000fa
:04006400f0080000a0
:020000040000fa
:04006800f00800009c
:020000040000fa
:04006c00f008000098
:020000040000fa
:04007000f008000094
:020000040000fa
:04007400f008000090
:020000040000fa
:04007800f00800008c
:020000040000fa
:04007c00f008000088
:020000040000fa
:04008000f008000084
:020000040000fa
:04008400f008000080
:020000040000fa
:04008800f00800007c
:020000040000fa
:04008c00f008000078
:020000040000fa
:04009000f008000074
:020000040000fa
:040094001807000049
:020000040000fa
:040098007e050000e1
:020000040000fa
:04009c00f008000068
:020000040000fa
:0400a0005006000006
:020000040000fa
:0400a400f008000060
:020000040000fa
:0400a800f00800005c
:020000040000fa
:0400ac00f008000058
:020000040000fa
:0400b000f008000054
:020000040000fa
:0400b400f008000050
:020000040000fa
:0400b800f00800004c
:020000040000fa
:0400bc00f008000048
:020000040000fa
:0400c000f008000044
:020000040000fa
:0400c400f008000040
:020000040000fa
:0400c800f00800003c
:020000040000fa
:0400cc00f008000038
:020000040000fa
:0400d000f008000034
:020000040000fa
:0400d400f008000030
:020000040000fa
:0400d800f00800002c
:020000040000fa
:0400dc00f008000028
:020000040000fa
:0400e000f008000024
:020000040000fa
:0400e400f008000020
:020000040000fa
:0400e800f00800001c
:020000040000fa
:0400ec00f008000018
:020000040000fa
:0400f000f008000014
:020000040000fa
:0400f400f008000010
:020000040000fa
:0400f800f00800000c
:020000040000fa
:0400fc00f008000008
:020000040000fa
:04010000f008000003
:020000040000fa
:04010400f0080000ff
:020000040000fa
:04010800f0080000fb
:020000040000fa
:04010c00f0080000f7
:020000040000fa
:04011000f0080000f3
:020000040000fa
:04011400f0080000ef
:020000040000fa
:04011800f0080000eb
:020000040000fa
:04011c00f0080000e7
:020000040000fa
:04012000f0080000e3
:020000040000fa
:04012400f0080000df
:020000040000fa
:04012800f0080000db
:020000040000fa
:04012c00f0080000d7
:020000040000fa
:04013000f0080000d3
:020000040000fa
:04013400f0080000cf
:020000040000fa
:04013800f0080000cb
:020000040000fa
:04013c00f0080000c7
:020000040000fa
:04014000f0080000c3
:020000040000fa
:04014400f0080000bf
:020000040000fa
:04014800f0080000bb
:020000040000fa
:04014c00f0080000b7
:020000040000fa
:04015000f0080000b3
:020000040000fa
:04015400f0080000af
:020000040000fa
:04015800f0080000ab
:020000040000fa
:04015c00f0080000a7
:020000040000fa
:04016000f0080000a3
:020000040000fa
:04016400f00800009f
:020000040000fa
:04020800f0080000fa
:020000040000fa
:04020c005008000096
:020000040000fa
:040210007008000072
:020000040000fa
:04021400900800004e
:020000040000fa
:04021800b00800002a
:020000040000fa
:04021c00d008000006
:020000040000fa
:04022000f0080000e2
:020000040000fa
:04022400f0080000de
:020000040000fa
:04022800f0080000da
:020000040000fa
:04022c00f0080000d6
:020000040000fa
:04023000f0080000d2
:020000040000fa
:04023400f0080000ce
:020000040000fa
:04023800f0080000ca
:020000040000fa
:04023c00f0080000c6
:020000040000fa
:04024000f0080000c2
:020000040000fa
:04024400f0080000be
:020000040000fa
:04024800f0080000ba
:020000040000fa
:04024c00f0080000b6
:020000040000fa
:04025000f0080000b2
:020000040000fa
:04025400f0080000ae
:020000040000fa
:04025800f0080000aa
:020000040000fa
:04025c00f0080000a6
:020000040000fa
:04026000f0080000a2
:020000040000fa
:04026400f00800009e
:020000040000fa
:04026800f00800009a
:020000040000fa
:04026c00f008000096
:020000040000fa
:04027000f008000092
:020000040000fa
:04027400f00800008e
:020000040000fa
:04027800f00800008a
:020000040000fa
:04027c00f008000086
:020000040000fa
:04028000f008000082
:020000040000fa
:04028400f00800007e
:020000040000fa
:04028800f00800007a
:020000040000fa
:04028c00f008000076
:020000040000fa
:04029000f008000072
:020000040000fa
:04029400f00800006e
:020000040000fa
:04029800f00800006a
:020000040000fa
:04029c00f008000066
:020000040000fa
:0402a000f008000062
:020000040000fa
:0402a400f00800005e
:020000040000fa
:0402a800f00800005a
:020000040000fa
:0402ac00f008000056
:020000040000fa
:0402b000f008000052
:020000040000fa
:0402b400f00800004e
:020000040000fa
:0402b800f00800004a
:020000040000fa
:0402bc00f008000046
:020000040000fa
:0402c000f008000042
:020000040000fa
:0402c400f00800003e
:020000040000fa
:0402c800f00800003a
:020000040000fa
:0402cc00f008000036
:020000040000fa
:0402d000f008000032
:020000040000fa
:0402d400f00800002e
:020000040000fa
:0402d800f00800002a
:020000040000fa
:0402dc00f008000026
:020000040000fa
:0402e000f008000022
:020000040000fa
:0402e400f00800001e
:020000040000fa
:0402e800f00800001a
:020000040000fa
:0402ec00f008000016
:020000040000fa
:0402f000f008000012
:020000040000fa
:0402f400f00800000e
:020000040000fa
:0402f800f00800000a
:020000040000fa
:0402fc00f008000006
:020000040000fa
:04030000f008000001
:020000040000fa
:04030400f0080000fd
:020000040000fa
:04030800f0080000f9
:020000040000fa
:04030c00f0080000f5
:020000040000fa
:04031000f0080000f1
:020000040000fa
:04031400f0080000ed
:020000040000fa
:04031800f0080000e9
:020000040000fa
:04031c00f0080000e5
:020000040000fa
:04032000f0080000e1
:020000040000fa
:04032400f0080000dd
:020000040000fa
:04032800f0080000d9
:020000040000fa
:04032c00f0080000d5
:020000040000fa
:04033000f0080000d1
:020000040000fa
:04033400f0080000cd
:020000040000fa
:04033800f0080000c9
:020000040000fa
:04033c00f0080000c5
:020000040000fa
:04034000f0080000c1
:020000040000fa
:04034400f0080000bd
:020000040000fa
:04034800f0080000b9
:020000040000fa
:04034c00f0080000b5
:020000040000fa
:04035000f0080000b1
:020000040000fa
:04035400f0080000ad
:020000040000fa
:04035800f0080000a9
:020000040000fa
:04035c00f0080000a5
:020000040000fa
:04036000f0080000a1
:020000040000fa
:04036400f00800009d
:020000040000fa
:10040000cf7a21000e7f24000e018800000000003a
:10041000000020000000e000020032000001200087
:100420002002880014000700180407000000e00004
:1004300003003a0060872900010020000200370015
:100440000000200001002000810f70000100320038
:1004500014000700000020000000e000020032004d
:100460000000020000000000e2a202000000000004
:100470000040da000000fe004440a900804f210047
:100480000000e0000300320000002000a00188000e
:100490004440a800000006008a1f78008b1f7800e7
:1004a0000000060091018800800478000000eb0045
:1004b0001a003700e284440032a0b4009905ba0063
:1004c000e284440032a0b4009906ba00e2844400f9
:1004d00032a0b4000006eb00476fde00fd07b2005b
:1004e000636ce10003003a00ebff07000000eb0043
:1004f0000a003700606ce10004003a00005deb0088
:100500008b05e900fdff3e00040037006168e10053
:10051000010032000086eb000b00070019c7ba008b
:100520001905ba000e04e00003003a000a00e000da
:10053000e0ff3a0000000600fe07b2009e018800be
:100540008a047800f5ff3700395dba008b05e900b1
:100550000c003200295dba008b05e900080032006a
:100560000c00e00003003a00e284440032a0b40032
:10057000f5ff370019ddba008b05e900faff3a00f4
:100580008904e800e184440032a0b40000000600c1
:100590009211040000000000be11040000000000e1
:1005a000781304000000000036230400000000005f
:1005b0000000040000000000809fbe00829fbe007b
:1005c0000000fa0085a0a900f05080000218800009
:1005d00080014000a16221008180410082087800f2
:1005e0000000e800f0508800f0508000ff0f50003d
:1005f000010036001e2aef000080fa004f01be0005
:100600004f00be00004006003600f800809fbe008c
:10061000829fbe00849fbe00869fbe00889fbe0052
:100620000000fa008420a900000a800040478800ea
:1006300090168000610060000000e00004003a00b5
:10064000f000200050478800d422a90003003700a2
:100650000001200050478800d422a8002003200079
:10066000c0458800e0002000704f8800a04f800047
:10067000ed0f500013003a0050478000f00f50007b
:1006800010003a00e0002000a04f88000821ef0091
:100690000621ef000000200001f82b00f045880043
:1006a000014688000000200001f82b00d04588009a
:1006b000e14588000080eb00604f8800ec28ef00e7
:1006c0000601370050478000f00f5000b3003a0099
:1006d000300880007047880040088000804788000c
:1006e0000821ef000621ef00804780008000eb002a
:1006f00090478800a147880090478000a14780006c
:10070000c000dd000000200090478800a14788005d
:10071000704780006101b80090478000a1478000c9
:10072000000071008180710090478800a147880017
:10073000d0458000e1458000f045880001468800f2
:1007400090478000a1478000a10407000004be007c
:10075000333707000001be000800be001704070081
:10076000d0458800e1458800d0458000e145800003
:1007700018c0b3006011b800540407000000e00086
:1007800001003c000044eb000804e0006800320077
:10079000f04580000146800018c0b3006011b80029
:1007a0004a0407000000e00001003c000044eb00a8
:1007b0000804e0005e00320078340700626626001c
:1007c00063f62300d7040700b0478800c1478800bc
:1007d000d4458000e5458000b0478000c1478000d7
:1007e00018c0b3000001be000400be0037040700bb
:1007f0000000e00001003d000044eb000804e000c0
:100800000b003200a0002000804f8800d0458000ff
:10081000e145800060458800714588000080eb005c
:10082000604f8800200020006047880040003700ab
:10083000f445800005468000b0478000c147800035
:1008400018c0b3000001be000400be001f04070072
:100850000000e00001003d000044eb000804e0005f
:1008600006003200a0002000804f88000080eb00ce
:10087000604f8800ec28ef002d003700f445800021
:1008800005468000b0478000c147800018c0b30013
:100890000001be000400be000a0407000000e000e2
:1008a000010035000044eb000804e00020003200a5
:1008b000b0002000804f8800d4458000e5458000ce
:1008c000f0458000014680000001be000400be002b
:1008d000f20207006045880071458800604780008b
:1008e0000000e80060478800d4458000e5458000ae
:1008f000f04580000146800018c0b3000001be0032
:100900000400be00f10307000000e00001003c000d
:100910000044eb000804e000030032003006200031
:10092000604f88000200370080052000604f88007b
:1009300060478000e20f500018003a00ec28ef00fa
:10094000b04f8000ed0f500014003a00d00020009e
:10095000904f8800bb330700629e2e00d3212400f5
:10096000700407000002be006045800071458000f1
:100970000001be000400be00900307000002be009c
:1009800060458000714580000001be000400be008b
:100990008a030700a0458800b145880050478000c1
:1009a000ef0f50004d003a0030088000d04788001b
:1009b00040088000e0478800e04780008000eb00ae
:1009c00090478800a147880090478000a147800099
:1009d000c000dd000000200090478800a14788008b
:1009e000d04780006101b80090478000a147800097
:1009f000000071008180710090478800a147880045
:100a000090478000a1478000f10307000004be006a
:100a1000833607000001be000800be006703070020
:100a2000f047880001488800dc3307006266260032
:100a300063f623003b040700b0478800c1478800e5
:100a4000f447800005488000b0478000c14780001f
:100a500018c0b3000001be000400be0099030700e7
:100a60000000e000010035000044eb000804e00055
:100a700017003200f04780000148800018c0b30022
:100a80006011b800910307000000e00001003c0085
:100a90000044eb000804e0000d003200804f8000ad
:100aa000eb0f50000a003a00e73207000002be00d8
:100ab000f0478000014880000001be000400be0035
:100ac0003e030700804588009145880003003700f9
:100ad0006000b80080458800914588000080fa00d9
:100ae0004f04be004f03be004f02be004f01be00c8
:100af0004f00be003600f900004006003600f80046
:100b0000809fbe00829fbe00849fbe00869fbe0065
:100b10000000fa008780a900d54f07001046880022
:100b20009420a9000000000010468000ed0f500046
:100b300006003a00c04580000000e00003003400d9
:100b4000c04580000000e900c04588009420a8004e
:100b500010468000ee0f500008003a0020032000ed
:100b6000c04588000080eb00704f88000080eb00db
:100b7000604f88000080eb00804f8800c0458000f7
:100b80000000e00006003a00d0002000704f88000e
:100b90000080eb00604f88000080eb00804f8800f1
:100ba0000080fa004f03be004f02be004f01be009e
:100bb0004f00be003600f900004006003600f80085
:100bc000809fbe00829fbe00849fbe00869fbe00a5
:100bd0000000fa008560a90010118000620060002a
:100be000404888001f003700301180000040780026
:100bf0000ae9b70060488000a29020001241780006
:100c000001332100827078000000e800604888000d
:100c10000ac9bf00ed4f50000d003a006048800047
:100c20000001780001332100002b21004f0507004f
:100c3000604880000000e900012b21000041eb002a
:100c4000827078000c29ef00d0002000105188003d
:100c50006148800000042000808f500001003a00ad
:100c60000c29ef0010118000610060000000e0001e
:100c7000ddff3a00404880000000e0000100320043
:100c80002222a9000080fa004f03be004f02be00de
:100c90004f01be004f00be003600f90000400600c4
:100ca0003600f800809fbe00829fbe00849fbe0079
:100cb000869fbe000000fa0087c0a9009011800046
:100cc00062006000104888001f003700b0118000eb
:100cd0000040780004e9b7003048800042902000ce
:100ce00012417800012f2100827078000000e80096
:100cf0003048880004c9bf00ed4f50000d003a0095
:100d00003048800000017800012f2100002b2100d5
:100d100016050700304880000000e900012b210083
:100d20000041eb00827078000629ef00d00020001f
:100d3000105188003148800000042000808f50004e
:100d400001003a000629ef00901180006100600068
:100d50000000e000ddff3a00104880000000e000e5
:100d6000010032003222a9000080fa004f03be00c9
:100d70004f02be004f01be004f00be003600f9001a
:100d8000004006003600f800809fbe00829fbe0033
:100d9000849fbe00869fbe000000fa008460a90008
:100da00060508000ed0f50000a003a00a74a07008b
:100db000ee0f500007003a00e0002000605088006d
:100dc000e000200020518800d000200070508800f2
:100dd00010003700af440700ed0f500007003a0045
:100de000114e800030062000808f500003003a0032
:100df000e0002000205188000600370020518000cc
:100e0000ed0f500001003a00e63d0700e000200031
:100e1000705088000080fa004f03be004f02be00f1
:100e20004f01be004f00be003600f9000040060032
:100e30003600f800809fbe00829fbe00849fbe00e7
:100e4000869fbe000000fa008760a900d04c800099
:100e50000000e800d04c8800b04c80000000e800a2
:100e6000b04c8800d04c8000610060000000e000c1
:100e700003003a00c04c80000000e800c04c88002d
:100e8000c14c800080252000808f50000c003a006b
:100e90009150800000072000808f50000400320035
:100ea0009150800010072000808f500004003a000d
:100eb0009829ef00d10d2000f0062000da47070046
:100ec000d04c8000610060000000e00009003a00a2
:100ed000604c8000714c800061004000e080480060
:100ee000604c8800714c8800e04c80000000e800f5
:100ef000e04c8800b04c8000630060000000e0001f
:100f000006003a009150800020072000808f50009a
:100f10000200320010002000804c8800e14c80006c
:100f200080702000808f500006003a009c29ef005e
:100f3000e04c07000f310700014c0700d84c0700b8
:100f4000754c07000080fa004f03be004f02be0040
:100f50004f01be004f00be003600f9000040060001
:100f60003600f800809fbe00829fbe00849fbe00b6
:100f7000869fbe000000fa008020a90000852d0099
:100f8000964f07000080fa004f03be004f02be00dc
:100f90004f01be004f00be003600f90000400600c1
:100fa0003600f800809fbe00829fbe00849fbe0076
:100fb000869fbe000000fa008060a900a0862d0078
:100fc000864f07000080fa004f03be004f02be00ac
:100fd0004f01be004f00be003600f9000040060081
:100fe0003600f800809fbe00829fbe00849fbe0036
:100ff000869fbe000000fa008040a90020882d00d6
:10100000764f07000080fa004f03be004f02be007b
:101010004f01be004f00be003600f9000040060040
:101020003600f800809fbe00829fbe00849fbe00f5
:10103000869fbe000000fa008080a90030892d0044
:10104000664f07000080fa004f03be004f02be004b
:101050004f01be004f00be003600f9000040060000
:101060003600f800809fbe00829fbe00849fbe00b5
:10107000869fbe000000fa0080a0a900808a2d0093
:10108000564f07000080fa004f03be004f02be001b
:101090004f01be004f00be003600f90000400600c0
:1010a0003600f800809fbe00829fbe00849fbe0075
:1010b000869fbe000000fa008020a900d08b2d0082
:1010c000464f07000080fa004f03be004f02be00eb
:1010d0004f01be004f00be003600f9000040060080
:1010e0003600f800809fbe00829fbe00849fbe0035
:1010f000869fbe000000fa008060a900a08d2d0030
:10110000364f07000080fa004f03be004f02be00ba
:101110004f01be004f00be003600f900004006003f
:101120003600f800809fbe00829fbe00849fbe00f4
:10113000869fbe000000fa008040a900508f2d005d
:10114000264f07000080fa004f03be004f02be008a
:101150004f01be004f00be003600f90000400600ff
:101160003600f800809fbe00829fbe00849fbe00b4
:10117000869fbe000000fa008080a900e0902d004c
:10118000164f07000080fa004f03be004f02be005a
:101190004f01be004f00be003600f90000400600bf
:1011a0003600f800809fbe00829fbe00849fbe0074
:1011b000869fbe000000fa0080a0a90060922d006a
:1011c000064f07000080fa004f03be004f02be002a
:1011d0004f01be004f00be003600f900004006007f
:1011e0003600f800809fbe00829fbe00849fbe0034
:1011f000869fbe000000fa00e0932d00f74e070026
:101200000080fa004f03be004f02be004f01be0037
:101210004f00be003600f90000400600809fbe006f
:10122000829fbe000000fa0084a0a9003008800060
:10123000404f880040088000504f88000821ef0090
:101240000621ef00504f80008000eb00204f880007
:10125000314f8800204f8000314f8000c000dd00fa
:1012600000002000204f8800314f8800404f800050
:101270006101b800204f8000314f800000007100f4
:1012800081807100204f8800314f880010002000bd
:10129000104f88000080fa004f01be004f00be00d2
:1012a000004006000000fa008500a900cc02aa0058
:1012b0000080fa00004006000a00fa001100200039
:1012c000b1bf9f00c0bf9f006a805700c0190700d0
:1012d0004fb897000080fa00000006000a00fa00ec
:1012e000e20f500034003e0010bd8000e10f5000be
:1012f00003003200e20f500011003a000c003700ea
:10130000032220000300e00001003a000040da0060
:101310002002e200020035002822ef0021e2a800ae
:101320002342ab000d003a002342a8000b00370017
:10133000032320000300e00001003a000040da002f
:101340003002e200020035003822ef0031e2a8004e
:101350003342ab0001003a003342a800820178001a
:101360000b0037003102fb00e10f500004003a008f
:101370002322ab00feff3a0024118800030037004f
:101380003322ab00feff3a00a41188008301e9007c
:101390000300e000f3ff3a00e10f500003003a00c1
:1013a0002302ab00feff32000b0037003302ab001c
:1013b000feff32000800370033002000b3bf9f005b
:1013c000c0bf9f00d1bf9f00e2bf9f006a8057004f
:1013d000811907006fb99700020078000080fa00b9
:1013e000000006000a00fa0051002000b1bf9f0073
:1013f000c0bf9f006a805700791907005fb8970047
:101400000080fa0000000600889fbe00800478007b
:1014100050bd80000000e00004003a000e0007000c
:101420000084eb000000e0000800350058bd80009b
:101430000900e00005003200090044000600070032
:101440000000e00001003d000084eb00080078008f
:101450004f04be0000000600800078000100e0009c
:1014600003003a000000200050bd88000000050085
:101470000080eb0002002000828f500002003e003e
:1014800051bd88000000eb000000060000000500d0
:10149000320020005e00370003f0a200889fbe00eb
:1014a0008a9fbe008c1f7800860107008d013300e3
:1014b0006450e1004f0032006420e100520032002d
:1014c00003826c0007003b000905d0000306d00032
:1014d000820f54000c065d00020039000200320049
:1014e00089017800030678008582550004003d00dc
:1014f0000003fd008103fd008502ea008b854200a8
:10150000840f720002003b0060001000e0801800b1
:101510006011b8000005eb007a28e1000a003900ec
:1015200006007800c75ddd00f707b2008780750010
:101530002d003700828171000a017800610560008a
:101540008180d1000080d3008502e900f9ff3b00d3
:10155000060440008784480002003b006004140039
:10156000e0841c000988a300070032008a81710012
:1015700082817100610164008904d1000884d30074
:101580008b05e800170037000978a30013003a0024
:101590000b00e000130034008b05e9000804440050
:1015a00089844c000a4474000978a3000d003a00b5
:1015b0000b00e000070034008b05e900080444003c
:1015c00089844c0001003a000b0020000978a30038
:1015d000f7ff32000001eb0002003700828171004a
:1015e0000a017800fc0007000cf0a70001f0a00041
:1015f000450137006420e10002003a00838f6c004f
:10160000450133000801be000200be003e01370064
:10161000889fbe008a9fbe008c9fbe000206780095
:1016200001f0a7000cf0a0000004be0010010700ac
:101630000800be006420e1000700390002003a0003
:10164000f1ff2700f0ff2f000160a0001202200030
:10165000325188005100370009f0a1000800be0097
:101660000200200003f8230098000700f4ff3c006c
:101670000800be000200200003982300910007002c
:101680000800be00300035000200200003f02300f7
:101690008e00070005003c000800be000801be00e7
:1016a000200107000005be000e0037000c10a2004c
:1016b0000000200001f823000801be0076ff0700ab
:1016c0000200200003f02300160107000005be0001
:1016d000b30107000200200003002c0011010700e5
:1016e0000004be000a00be00b2d02800130b2c007c
:1016f0006aff07000a01be000a010700020f250069
:10170000330b240065ff0700809fbe000a00be0067
:101710005206220013f02b0002010700b2662100de
:10172000f3f623005dff07000a01be00fd0007007d
:101730004f01be00210007000801be00f9000700ac
:101740000801be0055ff07000c00a7000700370086
:10175000b2fd200093fc23000c10a7004fff0700f0
:101760000cf0a70001f0a2000c0037000cf0a7005d
:101770000200370001f0a20004003700b2fd200093
:10178000930424000c10a60003003700b2fd2000d3
:1017900093fc23000c10a70040ff07004f06be007b
:1017a0004f05be004f04be00000006000001eb0024
:1017b00097ff37000081eb000e013700889fbe00c5
:1017c0008a9fbe008c1f7800be000700c500330052
:1017d00003866c006450e1002e0032006420e100ba
:1017e000330032006150e1002f0032006120e1003f
:1017f0003100320085855500eb07b000090020005c
:1018000008042000050037000804440089844c00c7
:101810000a0031000603430087834b000001530098
:1018200081815b00f8ff33000203be000800a000c6
:101830000804440089844c00f6ff3900c639dd00f5
:101840008301730001003200130020008904d100dd
:101850000884d3000998a300050032000800a700ff
:101860000300a0008904d1000884d3008b05e800a0
:101870008904d1000884d3000001eb000281d2006a
:101880005500070001f0a1000cf0a70001f0a00036
:101890009d0037006420e1009f0032000801be0077
:1018a0000200be00f7ff37006120e1009a0032001d
:1018b0006000b800f3ff37000000200001f82700a7
:1018c000f0ff3700140020007d013700f4ff2f00e7
:1018d0007b0137000001be00650007000470a7000f
:1018e00003f0a1006509b100160032000d003500bb
:1018f0006828e10006003500f0ff2f00f1ff270007
:101900000300e00013003b00010028000000050078
:1019100000004000818048008502e900fcff3a0099
:1019200008003700f88f420002003c008000eb0006
:10193000000005008100d1000080d3008502e8008e
:10194000fcff3a000300e00002003b0060001000d2
:10195000e0801800000006000001be0044000700ff
:101960000470a70003f0a10003f8a30013003a00dd
:101970006509b10010003200090035006928e10056
:1019800002003500010028000000050000004000b2
:10199000818048008502e900fcff3a000000060053
:1019a000f88f4200050035008100d1000080d3008f
:1019b0008502e800fcff3a00000006008000eb0012
:1019c000000005004f89de008201780057013700d2
:1019d0006011b8006501370081002000618055006a
:1019e0000b003d000b00200061fe2f000100e10014
:1019f0001d00340082817100610164008904d100fe
:101a00000884d3000000e800faff3a0071002000cb
:101a100061006400030070000200600009003200f1
:101a200061044400e0844c000988a50005003200f0
:101a30008b05e8006808e10002003a008904d10043
:101a40000884d300f20f20000258e10005003d0099
:101a5000c75ddd00f907b2008980750008007800d5
:101a6000000006000bf827008b007800000005003e
:101a7000c70ade00f107b200f50fb200080032001d
:101a8000e1cf4200020032000170a00024000500f6
:101a9000810f7000010032000408050044000500b9
:101aa000810f700002003a00140005008502e90071
:101ab0000000400081c04800fcff3b000170a00016
:101ac000240005000004be00e9ff07000003be007b
:101ad0000405be000200be00e5ff0700844f75004c
:101ae000000006000200be006450e1000500360060
:101af0006420e100020036000968a30001003a00fa
:101b00000800be000160a0004f0678004f05be002f
:101b10004f04be0000000600f0ff2f00f1ff270079
:101b2000f9ff3700889fbe008a9fbe008c1f780097
:101b3000e4ff0700ebff330003866c006450e10014
:101b4000240032006420e100270032006150e100ef
:101b5000220032006120e100210032008b8542002a
:101b6000eb07b1000134b800003ab80008044200a5
:101b700089844a00013ab8000030b80088804000eb
:101b800009014a0004003300000040008180480041
:101b9000020149008b05e900c909dd0083017000dd
:101ba0000100320013002000c814de004814dd00dc
:101bb0004709de001200b200c808de000884700089
:101bc00085ff070001f0a1000cf0a70001f0a000c4
:101bd000cdff37006120e100cfff32000801be00d9
:101be0000200be00f7ff37006150e100fcff3a0041
:101bf000c9ff3700889fbe008a9fbe008c9fbe0031
:101c0000820578000004be0099ff07000800be00ae
:101c10006420e1000700390002003a00f1ff2700cc
:101c2000f0ff2f000160a000120220003251880056
:101c3000550037006120e10003003a000b00a700c7
:101c400001f823005000370001f0a100020021003c
:101c5000936424001bff07000800be000400350049
:101c6000b2fd2000930c2400ef0007000004be002a
:101c70000005eb000b00a6004f0dde0001f0a100f7
:101c80000004be0032982f0023ea2300a5ff0700be
:101c90000001eb0003f023000b00a70003f8230072
:101ca000fefd07000bff07000000a7000a00a200ce
:101cb00044ff07000b00e000030032000200200098
:101cc00003f02300f4fd070001f0a2000006be00af
:101cd000020020009304240092ff07000801be00c8
:101ce000eefd0700809fbe000c00be0022a22a006d
:101cf000d3a723008bff07004f01be00e7fd0700bd
:101d00000004be0001f0a10002002000039823009f
:101d1000ecfe07000800be00190035000001be00ff
:101d200080ff07000006be00b2c52900e362230061
:101d30007cff070022222b00f3942b00d7fd070025
:101d40000c01be0077ff0700e273280083c0230068
:101d5000d2fd07000c01be0072ff070042aa2a0054
:101d6000a3e22b00cdfd07000c01be006dff0700b4
:101d70000801be006bff07000801be00c7fd070099
:101d80000a00a70001f0a2004f06be004f05be00ea
:101d90004f04be00000006000001eb0095ff370075
:101da000889fbe008a9fbe008c1f78000004be0082
:101db0002fff07000478a30026003a006120e1000d
:101dc0002500320009f8a30025003a006420e10054
:101dd00021003200f507b1000508a300020032001f
:101de00000004000818048006044b80003102000db
:101df00002002000000040008180480008054400e7
:101e000089854c000a0541008b8549000a05500070
:101e10008b855800030033000a00be0002047400e2
:101e2000838474008301d1000281d300830f710089
:101e3000f0ff3a008904d1000884d3006001490012
:101e400082017800c1adde00fb07b000e2fe0700b2
:101e50002dff37000960a0000800be002aff3700f0
:101e60001202200032518800f0ff2f00f1ff2700fe
:101e700025ff37006022b800060220000000d000d5
:101e80008180d2000482d2008582d2000000a000ae
:101e90000202520083825a00030031000202420013
:101ea00083824a000000a1000603e900f3ff3a0024
:101eb00000000600efff07000400be00000006005f
:101ec000889fbe008a9fbe00841f7800fdfe070029
:101ed0004f00780011003300f0ff2f00838f6c005b
:101ee00006003b00040565000a00a7000800370053
:101ef00009f0a6001000200008003700820f5400ef
:101f0000838f5c00030039001000200001003e00b8
:101f10000000200009f0a7000000ea004f05be0005
:101f20004f04be000000e00000000600881f78009b
:101f3000030478000300e00007003d00600010008b
:101f4000e080180060011900e081190002003b00e8
:101f500001f02d00030037000400070008f0a7007f
:101f600001f0a0004f04780000000600889fbe002a
:101f70008a9fbe000082700004027100048271001a
:101f8000260032000004be000200be006011b8004e
:101f90006b092000950220000182cf000a00390061
:101fa0000541b1000082cf00070039000541b100b2
:101fb0000982cf00040039000541b1000882cf003a
:101fc000010039000541b100054252001200320003
:101fd0000a003b0082817100610164008100d10030
:101fe0000080d3008984d3000884d3008b05e800e7
:101ff0000442e800f7ff3a000700370008044400f5
:1020000089844c0000004800818048008b05e9006d
:102010000442e900f9ff3a006ffe07004f05be00d9
:102020004f04be000000060004002000000037003e
:10203000889fbe008a9fbe008c1f78004f26dd005f
:10204000a0fe0700a7fe33006120e100430032003c
:102050006250e10041003e003e0039006420e10092
:102060003c003200058255000f003b000402e800ee
:1020700038003a00800f5300818f5b003500340038
:102080000800be0003f0a10001f0a60003f0a000cc
:102090000cf0a70001fd07009bfe3700060343007c
:1020a00087834b000c4646000005530081855b008a
:1020b000020033000a03be000c00a0000402e90085
:1020c000f6ff3b00850578000602430087824b003f
:1020d00004003a006000b80009f0a70001f0a00079
:1020e00089fe37000002520081825a000704e00096
:1020f000040033000603430087834b008b05e9008f
:10210000faff3700090578000604be000203be008e
:102110006011b80030fe0700e00f5200e08f5a0057
:102120000700350002003c000c08a3000400320048
:102130000601be0003f0a0000cf0a700d7fc0700ca
:102140000a85680001f0a1000af0a70001f0a000d4
:102150006dfe37000800be006bfe37001002200045
:102160000cf0a600305188006bfe3700800178002b
:1021700002003700b15978000201e9000200e000d6
:10218000fcff3a0000000600014e21003f0037002e
:10219000020037000204e0000b00320081017800e9
:1021a0000002780030417800b14f5100f9ff320051
:1021b0001000200014427800934f520003003100b9
:1021c0000080eb00000006000000eb0000000600ad
:1021d00000017800b1417800035978000304e00061
:1021e000fcff3a0000000600800078000101780042
:1021f0003104e000fdff3a0000005100000006003d
:102200000c003700b0417800b1cf51000600320019
:10221000100020009542780094cf52000b0031004e
:102220000080eb00000006000304e000060032001e
:102230000201e90001027800800278000200e0005b
:10224000f0ff3a00000005000000eb00000006006f
:102250008001780002003700845978000201e9000b
:102260000200e00006003200314278000404e00081
:10227000f9ff3a00020037008059eb000201e90043
:102280000200e000fcff3a0000000600889fbe004c
:102290008a1f78000004be00c90090006900900009
:1022a000808f500005003900090078003e060700c5
:1022b0008080eb000000e000160035000845780043
:1022c0004900900008587800c00498001900780070
:1022d00000b8a30004003a0000a8a30007003200e1
:1022e000ea4f540005003a00090078007405070021
:1022f0008080eb000000e00006003a0000c02000f3
:10230000190060000200320049009000e0049800cb
:102310008a80fb00010078004f0578004f04be0062
:1023200000000600881f7800020478000801780089
:102330008eff0700080040004f04780000000600f0
:102340000000fa00881f780000047800ea81570036
:102350003fb997008800780020192100fa00070093
:102360000000e000020035008040eb0001747800be
:102370004f0478000080fa00000006009001780009
:102380000200e00002003a000308e90005003700ff
:102390008080eb001304e000020032000308e80034
:1023a0009300fb0001007800000006000200fa0024
:1023b000f0bf9f00ea8157003fb997008f80e90086
:1023c000e01b2100020007000080fa000000060068
:1023d0001200fa00889fbe008a9fbe008c1f780002
:1023e00002047800a0b79f00b1b79f008300780077
:1023f00078805700480807000000eb00e0b79f0016
:10240000d8b79f000004eb005fb697009c85fb00e7
:102410008b04fb008b05ea00cf5dde00090078002d
:10242000140507000000e0001b0032006fb09700a9
:102430000000e800e0b79f00120020008000eb00e1
:102440003fb09700afb1970003000100000578008e
:102450000a007800070507000000e000f3ff3a00db
:102460006fb09700e10f4500080032000000e9005e
:10247000e0b79f000001eb008a0078003fb09700b2
:10248000afb1970003000100220037000000e9000f
:10249000e0b79f001f00370050022000808f5400db
:1024a00002003a000b05e900180037000b05780020
:1024b000160037006fb097000000e800e0b79f00fb
:1024c000120020008000eb003fb09700afb19700f2
:1024d00003000100bc00fb00810f50000b00320024
:1024e000e10f40007c003200efb097008100e9006e
:1024f000e1b79f000001eb00800078003fb097003b
:10250000afb1970003000100730037000a05e9002e
:10251000e8ff3b005fb097008b054000dbb79f00f2
:1025200050022000808f5400030032000900e000b8
:10253000b5ff3a00680037009b4078000040eb0090
:10254000a2c2b30082cf500003003a008b05e8001e
:10255000dbb79f0001407800a0f79f000000eb0070
:1025600080bf9f000b0037000fb89700f2ff2700d5
:10257000820f5000050032006a01b90000fd2f00f3
:10258000020040000100400080bf9f000a05e800f3
:10259000dab79f005fb597009a4478008900fb0086
:1025a00000fd2f0001004000e90f5000eeff360053
:1025b00020792100700507000000e00003003200d0
:1025c0000a05e800dab79f00010037008044eb00fd
:1025d000b9f79f005fb0970081c6b30081cf540068
:1025e00004003a0090cf14000b003a00e6c05000ff
:1025f00006003700c1c6b30081cf540006003a0080
:1026000090cf140004003a00e5c04000b1f79f00ed
:102610000000e800d0b79f005fb097009000fb007b
:1026200090792100540507000000e0001a003a00ec
:102630006fb097000000e800e0b79f001200200094
:102640008000eb003fb09700afb19700030001009e
:102650008004780009007800860407000000e0008c
:10266000f3ff3a006fb09700e18f4400080032009a
:102670000000e900e0b79f000001eb00890078004e
:102680003fb09700afb19700030001000200370090
:102690000000e900e0b79f007c8057005b0807005e
:1026a0000000e00003003c000800e0000a003a00df
:1026b000080037004ff097000004e00001003200ee
:1026c0000804e8005fb097000000e800d0b79f0062
:1026d0004dff370000047800080078004f067800ae
:1026e0004f05be004f04be000080fa000000060047
:1026f000889fbe0000047800010078008204780002
:10270000880178000901780011002000a704070063
:10271000890f5000010032000004eb00080078002f
:102720004f04be00000006000000fa00e8815700d8
:102730004fb99700014e21008037210002000700a9
:102740000080fa00000006006200fa00889fbe00c8
:102750008a1f780000057800810478000204780060
:102760008300780080f92f000f0040006a070700ff
:102770009a979f00a9979f000000eb00b09f9f00d1
:102780001885fb008a04fb000a05ea004f55de00ad
:1027900050022000808f54000d003200e10f5500e0
:1027a0000b003a000a017800880078002f9097000b
:1027b0009f91970003000100a0979f000000e00098
:1027c0008e0032003f9897000000e800b09f9f0005
:1027d0000a04440050022000808f5400040032009c
:1027e0000900e000e6ff3a003f98970084003700b8
:1027f0000000eb00909f9f00809f9f00f0979f003c
:10280000e0979f00d0979f00c0979f000700370078
:102810004177210001005000000040008176210036
:1028200061007800df98970001007000d09f9f0042
:102830008804780009047800384578008a00fb0095
:1028400040772100cc0407000000e000f0ff3a00d0
:10285000a1c2b300814f55000e003a00cf88970007
:102860000180e900c08f9f0010007800c09f9f008a
:102870000000e00005003d000000ea00c09f9f004e
:102880005f9897000020a000d09f9f000904e800f7
:102890000f003700c09f9f000000eb0005003700cd
:1028a000f2ff2700820f5000020032006a01b900d7
:1028b000028040000904780088047800b900fb0019
:1028c0000103b100e98f5000f5ff3600c09f9f0063
:1028d000e0c2b300984f1000020032000080eb000d
:1028e00019003700a0c2b300d84f100007003a000b
:1028f000cf8897000180e900c08f9f00100078000a
:10290000a09f9f000804e800100037000000eb00c3
:10291000a09f9f008800780005003700f3ff270084
:10292000830f5000020032006a02b9000400410027
:1029300001047800880078003101fb000203b10037
:10294000e90f5100f5ff3600a09f9f0098447800e2
:102950008900fb0000762100870407000000e000ea
:10296000020032000804e800010037008044eb0058
:10297000c97f9f0080c6b30080cf540004003a0096
:1029800098cf14000a003a00664050000600370055
:10299000c0c6b30080cf540005003a0098cf1400a1
:1029a00003003a0065404000c07f9f000804e80033
:1029b0001801fb00e3fb2f008f81410081f92f00fc
:1029c0008f804000a0f92f000f004000100007008a
:1029d0000000e00009003a00e1fb2f008f8040007a
:1029e000a0f92f000f0040000f0607000000e000d4
:1029f000020035000804e80061ff37000080eb00aa
:102a00004f0578004f04be000080fa000000060069
:102a1000889fbe008a1f78000004780082447800f6
:102a20000305780070c6b30080cf540021003c003d
:102a300000c0e90080cf5400d5003d007240500036
:102a400080cf54003c0132000d003c006c4050002f
:102a500080cf54004f013c0000c0e90080cf5400fb
:102a6000cb003d0050c2b30080cf5400460132007d
:102a70007c40400080cf540046013a00c40037003b
:102a800010c6b30080cf5400c100320004003c00e7
:102a90006940500080cf54003e013a006900370081
:102aa00030c6b30080cf5400180032000040e80068
:102ab0000900370000c7b30080cf54001001320076
:102ac00008003c0000c0e90080cf5400d90032006b
:102ad0005c003c006540500080cf54002d013a005e
:102ae0000f00370050c7b30080cf540055003200ac
:102af0006340400080cf54005200320065405000d7
:102b000080cf540023013a000b0137001181e90006
:102b10008208780078009000127578002301370051
:102b200028609000c2c6b300824f500007003a00f0
:102b30001101780064005100800878001000be0088
:102b40004f89de00820178001400370012c7b300fd
:102b5000824f500003003a001102780068005200d2
:102b600005003700a2c6b300824f500006003a00ad
:102b70009102780068805200800878005001be0001
:102b80004000be00050037001180e9008008780091
:102b900010007800cf80de006109b900009cbe0003
:102ba0000294be002862900085c6b300854f520093
:102bb0000d00320025c6b300854f520004003a00d4
:102bc0000000fb00cf80de006109b900080037007b
:102bd00045c7b300854f520003003200e6c24200f1
:102be000854f520004003a00cf80de006109b90031
:102bf000009cbe000294be003802be002803be0046
:102c000078009000d1c2b300e00f5200e08f5a006c
:102c1000e00f5b00e08f5b0008003500881090003b
:102c20000118a30002003200b1c2b3000300370054
:102c30000108a3005100320001c2b3000175780001
:102c40004c00370028609000c2c6b300824f50008d
:102c500008003a00110378006400530080087800ef
:102c60001002be006033b8000400be000601be00c2
:102c70001400370012c7b300824f500003003a001f
:102c8000910278006880520005003700a2c6b300a8
:102c9000824f500006003a0011037800680053008c
:102ca000800878005001be004000be0005003700db
:102cb0001180e90080087800100078008000eb00a7
:102cc0006011b800009cbe000294be002862900013
:102cd00085c6b300854f52000d00320025c6b300f3
:102ce000854f520004003a000080fb008000eb009a
:102cf0006011b8000800370045c7b300854f520087
:102d000003003200e6c24200854f520004003a0040
:102d10008000eb006011b800009cbe000294be0071
:102d2000081090000038a300140032003800be00e4
:102d30002801be00e00f5000e08f5800e00f59005e
:102d4000e08f59000d00320080c7b30080cf5400df
:102d50000300320080c5b30080cf540007003a0062
:102d60007800900001c3b300017578000000e8000e
:102d7000097578000000e800700498007800900061
:102d8000000545006a049800894078006700370014
:102d900028619000c0c4b300804f510006003a0083
:102da0009103780068805300800878005001be00cd
:102db0004000be000500370011017800640051009a
:102dc000800878001000be003d140700009cbe0083
:102dd0000294be00b8009000780090000100e0006e
:102de00002003d00d1c2b3000800370088109000f7
:102df0000118a30002003200b1c2b3000300370083
:102e00000108a3000400320001c2b300017578007c
:102e10000000e8007004980078009000000545006c
:102e20006a0498008900fb0008007800650007002c
:102e30006000370028619000c3c6b3001180e9002c
:102e4000834f5100220032000a003c00e4c15100cf
:102e5000834f51002500320083c1e800834f5100a9
:102e600013003200e8c15100834f51001e003a00a8
:102e70000a00370043c7b300834f51001b003200e4
:102e8000e6c14100834f510018003200e9c15100f2
:102e9000834f510014003a00050037008008780085
:102ea00010007800485c9000084878004100370026
:102eb0008008780010007800680a9000cfa2de0039
:102ec000612bb9000498be000690be00390037009f
:102ed000800878001000780068099000cf91de002b
:102ee0000288be00330037001180e90080087800b6
:102ef00010007800680c9000080878002d0037005a
:102f00001180e9008008780010007800cf80de0092
:102f10006109b900009cbe000294be0078009000d8
:102f2000000545006a04980081c7b30008007800d6
:102f30008e0307001f0037001180e9008008780029
:102f4000100578006a049800d80c90000900e00091
:102f500004003d000a007800a3fc0700800478000c
:102f600007003700090178008000eb000a007800b4
:102f7000f70207000000e000010032008a04500060
:102f8000190c98000b003700780090000975780044
:102f90000600370078009000000545000904e000b5
:102fa00001003a0059c2b300094d78000000e80062
:102fb000700498000000eb004f0578004f04be003d
:102fc000000006002f04b000889fbe008a9fbe004c
:102fd0008c9fbe008e1f78000007780081f79f004d
:102fe0003e04be002e05be005e0890000000e0001a
:102ff00002003d0060002000500f98008e00780015
:1030000020fb2f000f0040002e030700e20f5000ae
:103010000a003a0030002000100f9800b1c9b30038
:103020000ff097008140400040542100e1cf500054
:103030000d003e00005421000b0037000000e000ae
:103040000f00340030002000100f9800b1c9b30009
:103050000ff1970081404100c0542100e1cf5000a2
:1030600001003e0080542100ee009000b04878003e
:10307000b06878001040780090409800f300370066
:103080000000e00005003a0022fb2f000f01410084
:10309000001978008001eb00e70037006022b800db
:1030a0006033b8000800be000a01be00cc12070061
:1030b0000000e00001003d000bf0a2007059270065
:1030c0009f9897000088b900026a2800130020002a
:1030d00027130700640650009c9f9f0013003b00cd
:1030e00063061600c0ff2f00000666008c01ea0090
:1030f000939f9f000d5521000800be000a01be00ed
:10310000070037000c08a300030032003d02be0098
:103110002d03be00b81307000c86d100e8864600d8
:103120000c00e000f7ff3c00180037000c00e00046
:1031300018003200c0ff2f00000666009c9f9f0011
:103140000d5521006000b8000200200003ff23009d
:10315000070037000c08a300030032003d02be0048
:103160002d03be00a41307000c86d100e88646009c
:103170000c00e000f7ff3c000002be000203be00ae
:103180000800be000a01be009f1207000004be0036
:103190000205be00de08900060c6b3000ff2970083
:1031a000804f5200040032006000200062c4b3006f
:1031b000824f520002003a009f9a97006a804200b4
:1031c00081004000f1b79f0001037800f30f530026
:1031d0000200340037012000f7b79f0000c3b3009e
:1031e000c0779f0056fb2f000f0343000e007800ae
:1031f000a0b79f00060778003d0037000800be001a
:103200000a01be004d1307000006be007fb1970003
:1032100068015100f2b79f004240a9000c00340041
:10322000721307000002be000203be000800be00c9
:103230000a01be00e61307006022b80046782d00a0
:10324000771924006c1307000004be000205be00bd
:10325000e80047008e0020000802be000a03be00fe
:10326000b4b79f00c5b79f00d6b79f00e7b79f00d0
:103270000c01be00010478000c003700a4002000ff
:1032800005002000c0fd2f000f0040001b020700ba
:103290006fa89700ffa897000fb197009fb1970004
:1032a00005c3b300056441000001be00e00f5100fa
:1032b000e08f5900030034000e07e900e10f4700da
:1032c000eeff3a00880078003fb49700cfb4970033
:1032d0005fb59700efb597000200370000c3b30059
:1032e000806078000e07e900fcff3b006887400023
:1032f0007fb397000600e000070034006022b800aa
:103300006033b8000800be000a01be003912070091
:103310000000e000b9ff3c000e0378002fb79700d3
:1033200051fb2f008f804000010353009f9b9700ab
:1033300067804300909f9f00020037000603e9006a
:103340000000e900010178008200780003c3b300a7
:10335000b1cf1100f9ff3200909f9f00de0990006d
:1033600061c6b3000ff29700814f52000300320094
:1033700061c4b300814f520002003a000000e8002f
:103380000a0037001000200051c6b3008ff29700ea
:1033900081cf5200050032000540780050c4b200d1
:1033a0000080fb000000e9004f00de0083014000c8
:1033b000868f510001003400860178000300e00090
:1033c0001d00350000c3b300868f510006003d008c
:1033d00062c279006940400041c3b300814f52008e
:1033e00001003c00694050008300e9008100410079
:1033f00001003700840178000302e900010378002e
:10340000a142780080cf5200faff320091c3b3008e
:10341000814f500001003a00054be8000400e00035
:1034200005003d000201e9008301e8001f9b9700b1
:103430000603e800969f9f008ff397008700fb002c
:103440001f9a97000e007800060007004f077800cb
:103450004f06be004f05be004f04be002f04b10052
:1034600000000600f0874700889fbe008a9fbe00cc
:103470008c9fbe008e1f7800000478008144780085
:103480000205be00040678000b00e00002003c00cc
:103490001b0020004a7a210060c6b30080cf540090
:1034a0000e00320060c4b30080cf54000b00320025
:1034b00070c6b30080cf54000300320070c4b30064
:1034c00080cf540081003a00e40f46007f003500b1
:1034d00058089000800f56007c003d000c06e80064
:1034e00060c6b30080cf54001000320060c4b30047
:1034f00080cf54000d003200081090000038a30067
:1035000004003a0058089000808f550001003d00eb
:103510005b0c9800580890000c005000500c98006c
:1035200002003b000000eb00500c980018089000cf
:10353000e80090000c00e00026003c0002c3b3004d
:10354000827078000000e800100c9800d808900005
:103550000100e00003003c00881090000138a30047
:1035600005003200e8009000e2c2b30082707800eb
:103570000000e800100c9800580890008c00ea0049
:10358000810f500001003d000006ea008c00ea00b7
:10359000210c9800000646005c0c98008b0f56002a
:1035a000010034000b0678003c0c9800e800900005
:1035b00018089000008040000c0178008a00780014
:1035c000eafa0700580890000c0650004c0c9800ce
:1035d000900037008c8f550018003d00008040009f
:1035e0000b0178008a007800e0fa070018089000c4
:1035f00000804500100c98008b0556002b0c98009d
:10360000d80890000100e00003003c008810900002
:103610000138a30006003200e8009000e2c2b300c7
:1036200082707800380890000000e800300c9800a4
:1036300058089000400c9800760037000080400049
:103640000c0178008a007800c8fa0700180890007a
:1036500000004600100c98008c855500d80890009a
:103660000100e00003003c00881090000138a30036
:1036700005003200e8009000e2c2b30082707800da
:103680000000e800100c980058089000808f55004a
:103690000100340080057800e800900018089000d0
:1036a000008040008c0045000b017800affa070055
:1036b000180890000b004000100c9800580890006b
:1036c0008b0550002b0c9800520037001808900012
:1036d000e80090009a7078000000e800100c980054
:1036e000d80890000100e00003003c008810900022
:1036f0000138a30005003200e8009000e2c2b300e8
:10370000827078000000e800100c980058089000c3
:103710000000e000100034008b05e900808f5500a8
:103720000100340080057800e8009000180890003f
:10373000008040008a00e8000b0178008bfa070047
:10374000180890000b004000100c980058089000da
:103750008b0550002b0c9800e80090001808900092
:1037600000804000095878000007e8000c00e000e5
:1037700004003500b1c2b300014878008e0478001f
:1037800004003700d1c2b300014878008e047800ed
:103790000c06ea007d8557008006eb000900370023
:1037a000a20020008c0078007280570039000700ca
:1037b0007fb097008fb89700016d78000006780001
:1037c0008d06e8000c00e000f5ff3c000d00e00075
:1037d00009003a008e04780000c3b300805c7800d2
:1037e000050037008d06e900fc80570061c07e00af
:1037f00002c3b300825c40000d00e000f9ff3c0012
:10380000e800900018089000008040008084540078
:10381000390c98000810900074006000f00f500000
:103820000e003a0098089000780090000080400058
:10383000a808900001004000b80890000100400076
:10384000c808900001004000f8089000810f500067
:1038500002003d0000805000000c98004f077800e7
:103860004f06be004f05be004f04be000f01b10061
:10387000000006006900e100040035006d00e10071
:10388000030034000002b100010032000000050016
:103890001000050080027800010378001100090083
:1038a0000203d80080017800830a78000299b900e9
:1038b0000201530092029800050078000000060003
:1038c000889fbe008a1f7800000478000800e0008e
:1038d0000d003a00e8522100700544008004eb001e
:1038e000580078000000e00004003200f4ff0700f8
:1038f0000000e00001003d008084eb008a0f5400ce
:10390000f7ff3a0025003700000022001800600091
:103910008004eb0021003200a80490000f00370063
:1039200009015100384090000000fb008900780038
:103930006af607000000e00007003c002800900045
:103940004004980060049800500c98001890a00063
:103950008084eb001100370080844400480190000f
:10396000828f5400eeff3900280090004004980038
:103970009800780002c020000281600001003a0037
:103980003800900001e8a3000200320060049800b3
:1039900001003700500c98008004eb00090078000b
:1039a0004f0578004f04be0000000600889fbe004f
:1039b0008a9fbe008c9fbe008e1f78000006780094
:1039c0000104780002007800830478000881b900bf
:1039d000020778000200e000420032000800e00028
:1039e0004100320082057800c90090006900900013
:1039f000808f500004003900090078006a00070039
:103a00000000e0002900350000402000190060009f
:103a10000a0032000b017800a10020000c007800a1
:103a20004b000700800678000d00e0000600320021
:103a3000610516000a854600040037000b05780072
:103a40008006eb00010037000b057800490090006c
:103a5000e9009000808050008a8f50000200310001
:103a6000010578008006eb000a0178008c007800e0
:103a7000bef907008a855500490090000a00400001
:103a8000c00498000d00e000040032000900780036
:103a90008bff07000000e00004003a000b00e0008c
:103aa000020032000a064600cfff370000802000e7
:103ab00019006000020032000900780080ff070052
:103ac00000c0200019006000020032004900900090
:103ad000e00498008b055700110009008885d80084
:103ae000010037000000eb004f0778004f06be00d2
:103af0004f05be004f04be0000000600881f78007e
:103b00008a9fbe008c9fbe00000478000205be00a4
:103b10000406be000401be000a00be0094100700a7
:103b2000008cbe000c01be00d61107000005550038
:103b300081855d002a0498003b0498000800780005
:103b40004f06be004f05be004f047800000006007f
:103b500003003700b0cf1000050032000201e90079
:103b6000800178000200e000faff3a000000050042
:103b70000300780000000600020037000304e000a4
:103b8000060032000001780002007800b0417800a1
:103b900081cf5100f9ff3a00010037000001eb002e
:103ba0000200780000000600889fbe008a1f78008f
:103bb00000047800c8009000680190000000eb004d
:103bc000828f50003c003900180078002200290044
:103bd00002016000e20f51000700320001202400c2
:103be0000000e00001003d0001202000008c70007a
:103bf0000080eb0030003700020026000200600069
:103c0000820f500009003a0038009000808f500069
:103c1000060039000800780029ff070080007800be
:103c20000080eb000100e00023003a001805780056
:103c300000c020000000650018003a00a8049000b1
:103c40006002200008004000808f540013003a00fa
:103c500000202000ff060700200498000000e0007c
:103c600005003a0029049800490498008904e800f6
:103c700039049800080037000a60a0000a0c780098
:103c8000400498000120200080804000310498000a
:103c9000400c9800500c9800230207002800900068
:103ca000500498003800900060049800000026003e
:103cb000180c70000000eb004f0578004f04be00a8
:103cc00000000600889fbe0000047800e6844000e3
:103cd0001900d0004500de00f27f2000820f500066
:103ce00010003a00000ceb00990478006f8164002a
:103cf000200020001b003a00210190000200e0009b
:103d000018003a00110190000200e00015003a008e
:103d1000100020001100e0001200320020002000fe
:103d2000100037000000e00004003a0001007800b5
:103d30006a0207000000e00008003c00f2002800d2
:103d40001901610001fe2300810c710021c02f00c8
:103d5000010c40000080eb0002003700000ceb007b
:103d60000000eb004f04be0000000600fc87470087
:103d7000889fbe008a9fbe008c9fbe008e1f780069
:103d80000006780080c5b30080cf50000a003200e2
:103d90007740400080cf50000a0032006940400068
:103da00080cf50000b003200f06c210080bf9f00dc
:103db000ae0020000a003700e26b210082bf9f00a6
:103dc00006003700f36c210083bf9f008e002000a7
:103dd00003003700f46c210084bf9f000e01200017
:103de0003c02be002c03be000605be000404be005b
:103df00040c6b30080cf5000030032006540400051
:103e000080cf50000b003a00e00f5200e08f5a00c4
:103e1000e00f5b00e08f5b0006003d006000b80033
:103e20006011b8000404500085845800060559004c
:103e300087855900e80f5700040032004000200039
:103e4000f00f570038003a00010037003000200022
:103e5000e00f5400e08f5c00e00f5d00e08f5d003c
:103e600004003a00dc0890008d0120000100e00011
:103e7000060032008e00e900888060008fba97004b
:103e8000e5c07800f1ef9f007d0120008000780000
:103e90008100e900050033008b05d1000a85d300bd
:103ea0008984d3000884d300f9ff3700089ebe0040
:103eb0000a96be00120037008d06e9008e00e90068
:103ec000848060000fb99700e2c1780082fd2f0066
:103ed0000f01410003f17e00800078008100e900bd
:103ee000050033008783d1000683d3008582d30089
:103ef0000482d300f9ff3700049ebe000696be0080
:103f00003c02be002c03be00e00f5200e08f5a00be
:103f1000e00f5b00e08f5b008b0034000d00e000e1
:103f2000e5ff3c00880037002c60900081c6b3009c
:103f3000814f50000b00320006003c000004e000fe
:103f400008003200e6c05000814f50004e003a0099
:103f500004003700c1c6b300814f50004a003a0048
:103f6000210037000800e00004003a005c089000df
:103f70008d0120000000e000060032001100090061
:103f80000e84d8000fb99700e2c07800f1ef9f00cf
:103f90007d012000110009000e84d8000a003700be
:103fa000110009000e04d8008d06e9000e81b90049
:103fb000020454008fb8970061417c0081fd2f00fe
:103fc0008f80400082f07e00000478000800e0004e
:103fd000020032000d00e000f1ff3c00cfc4de0023
:103fe000614db90025003700e00f5400e08f5c0000
:103ff00004003a005c0890008d0120000000e00001
:10400000070032006171b9000800be00a9f707007f
:104010008fb99700e3417800f3ef9f007d01200006
:104020006171b9000800be0092f707000b0037006d
:104030006171b9000800be004d0f07008d06e90050
:1040400000f1b900020454000fba9700e4427c006a
:1040500084fd2f000f02420005f27e000004be0026
:10406000e00f5000e08f5800020032000d00e00029
:10407000efff3c004fcdde008a057800089ebe00b1
:104080000a96be0030003700e00f5400e08f5c005d
:10409000e00f5d00e08f5d0004003a005c089000d6
:1040a0008d0120000000e000090032006172b900bb
:1040b000612bb9000800be000a01be0017110700fd
:1040c0000fba970064427800f4ef9f007d01200052
:1040d0006172b900612bb9000800be000a01be0080
:1040e000071107000d0037006172b900612bb9009c
:1040f0000800be000a01be000c1107008d06e90091
:1041000000f2b900040454008fba970065427c00a5
:1041100085fd2f008f82420084f27e00009ebe004b
:104120000296be003c04be002c05be00e00f540009
:10413000e08f5c00e00f5d00e08f5d000200340066
:104140000d00e000e8ff3c00e80f570010003a00c7
:104150000c1090000038a3000d003200f78f5600bd
:1041600006003e0085fd2f008f824200e5c07e00e4
:1041700000c3b30080cf5000050032008d06e90077
:1041800002c3b30081fd2f008f80400082f07e00cb
:1041900078811600120e98006c00900083fd2f00ad
:1041a0008f8141008d804100f0f707001c089000ce
:1041b000dc089000810f500006003d000080500098
:1041c000000e98000c1090000040a100001698000e
:1041d0000f0037000100e0000d003d008c10900042
:1041e000f4806000f08f500009003a007c099000d4
:1041f000fc009000810051000c099000828050006a
:10420000008050004240a90001003400000e9800d8
:104210004f0778004f06be004f05be004f04be009a
:10422000cf01b100000006000400fa00889fbe0024
:104230008a9fbe008c1f7800000478000106780079
:10424000f80d9000780090008085550008089000d7
:10425000808555001808900080855500280890003a
:1042600080855500380890008085550048089000ea
:10427000808555000002220090bf9f0000032300ac
:10428000a0bf9f00081090000028a30015003a006e
:104290000b00e000130034000b0578008a0478005e
:1042a000e20f55000100360029002000c8019000ef
:1042b00009017800ee8057005800900003000100cb
:1042c000500498000000e0008c0032006808900064
:1042d00009004000600c9800090555004240a90003
:1042e000eeff3c00780190000200e0000c0034007a
:1042f000c80190008c007800580090000300010075
:10430000500498008080eb000000e0007c00320048
:10431000e80890007800900000804000600c980051
:10432000880c90000900e0001100340009057800b5
:10433000e28f5400010036002a002000c8019000de
:104340000a017800ec80570058009000030001003b
:10435000500498000000e0006800320068089000f7
:104360000a004000600c98008a845400edff37007a
:10437000180990000200e0000c003400c801900011
:10438000e8009000580090000300010050049800dd
:104390008080eb000000e00059003200e808900047
:1043a0001808900000804000600c9800a80c900055
:1043b0000900e0001100340009057800e28f540084
:1043c000010036002a002000c80190000a01780090
:1043d000ec80570058009000030001005004980042
:1043e0000000e00045003200680890000a0040002c
:1043f000600c98008a845400edff37003809900063
:104400000200e0000e003400e80090001808900060
:1044100080804000c8019000580090000300010017
:10442000500498008080eb000000e000340032006f
:10443000e80890003808900000804000600c980068
:10444000c80c90000900e000110034000905780054
:10445000e28f5400010036002a002000c8019000bd
:104460000a017800ec80570058009000030001001a
:10447000500498000000e00020003200680890001e
:104480000a004000600c98008a845400edff370059
:10449000081090008000eb000028a30018003200f4
:1044a0000b00e000160034008b047800090578004a
:1044b000e28f5400010036002a002000c80190005d
:1044c0000a017800ee8057005800900003000100b8
:1044d000500498000000e0000800320068089000d6
:1044e0000a004000600c98008a8454004240a900f1
:1044f000eeff3c008000eb00010037008080eb0005
:10450000010078004f0678004f05be004f04be0042
:104510000080fa0000000600010878000000060094
:104520006033220061003700881f7800687a21001c
:104530001804e00003003a00f9ff070020c0b300b0
:10454000004c78004f04780000000600889fbe00f1
:104550000004780008007800d9fc07008004780087
:1045600000042000180060000200320028009000c3
:10457000530407000000eb0020049800384090002e
:104580000004e000050035000000fb004af30700ce
:104590000000e000010032008084eb001810900061
:1045a0000000e000080032008ef307000000e00089
:1045b000010032008084eb001810900040040700d6
:1045c0000000eb00101498000008200018006000a4
:1045d000150032000001eb006000b8000353210019
:1045e0000202d00063027a00880f520005003a00f0
:1045f0000000400081804800008041000008eb007e
:104600000600370061004000e08048000201e80039
:10461000e80f5000e08f5800f0ff3a0008007800e3
:10462000270407000e003700000c780000c0eb00e4
:1046300030449800600220000800400020049800e8
:104640004004980050049800400c980060049800c2
:10465000500c98007004980076004400000c9800fc
:10466000090078004f04be0000000600881f780093
:104670000004eb006140b800e2ff2f00f3ff2f00c1
:10468000000f0700e2532100620078000000e00004
:1046900001003200adff07000804e800e80f5400f5
:1046a000f4ff3a004f0478000000060001002000eb
:1046b0000100e00008003200010080000100e0007d
:1046c000050032008100e900010088008100d0006f
:1046d0000200800000b1780000000600e600400003
:1046e0001101780005002800850261006f0161005a
:1046f000820878000200320012002000110037000a
:10470000a0019000120020000300e0000d003a001c
:10471000900190000300e0000a003a001000e00061
:1047200008003a003600370064034000960878001d
:1047300080017800530b7800900978000408780015
:1047400070015100110278000400e000f6ff320011
:104750001300370064024000140378004f33de007a
:10476000838141008308730080017800d3037800bf
:10477000cf3bde001403780006034300068a730073
:104780001302780004024200100378004f33de0069
:104790008609720090017800038841000201e90057
:1047a00091017800ef8f5100eaff360010003700ca
:1047b00080017800530378004f33dd001002d100f0
:1047c000040873006402400094037800cf3bdd00ce
:1047d0001303d10086897300110378004f33dd0085
:1047e0009401d100030a73009108d1000201e8008e
:1047f00091017800ff8f5100edff3e00ef886100ce
:10480000918872000200780000000600881f78007e
:10481000000478000040eb0000549800380090003d
:104820001040780041c6b300814f50003200320082
:104830001c003c00fdc05000814f50000a003c00ad
:1048400081c0e900814f50002e003d0051c2b300ed
:10485000814f500070003200fcc04000814f50007a
:104860008c003a002700370011c6b300814f50007a
:104870002400320007003c00e9c05000814f500086
:104880001d003200e3c04000814f500081003a001b
:104890007c00370031c6b300814f50007d003a00e4
:1048a00013003700e1c6b300814f500018003200fa
:1048b00005003c00e7c05000814f5000110034005b
:1048c00081c0e8000700370001c7b300814f5000e6
:1048d00009003400e5c04000814f5000060032005e
:1048e000e3c04000814f50006a003a0002003700e8
:1048f0008000eb006400370008007800ff03070029
:104900006500370008007800650007006200370086
:10491000e8489000100020000104e0005e003a002a
:10492000f8489000c3c6b3002801900083cf500020
:104930002a0032000a003c00e4c1510083cf50003d
:104940002000320083c1e80083cf50001400320001
:10495000e8c1510083cf500027003a000a00370019
:1049600043c7b30083cf500016003200e6c14100b8
:1049700083cf500013003200e9c1510083cf5000b3
:104980001d003a00060037000281e9002204980069
:1049900092007800084c9000884878003e0037006c
:1049a0000281e900220498009200780048029000f9
:1049b000cfa2de00612bb9008498be008690be00b5
:1049c000350037000281e900220498009200780047
:1049d00048049000880878002f0037000281e90021
:1049e000220498009200780048019000cf91de00e8
:1049f0008288be0028003700280090000080e9006f
:104a000020049800100078004804900008087800fe
:104a10001000200020003700480090000000e8004f
:104a20004004980098017800120020008000eb00fc
:104a300018009000030001008000780010002000a2
:104a400052022000828f5000130032004800900074
:104a5000e18f4000070032000000e90040049800a8
:104a6000980178000001eb0018009000030001009d
:104a7000080037000000e9004004980001007800b9
:104a8000050037008080eb00080078002005070053
:104a9000010037000000eb004f0478000000060022
:104aa0006f04b000889fbe008a9fbe008c9fbe002e
:104ab0008e1f780000047800680090000000e0007d
:104ac00001003c00f0ff27000000e90050049800be
:104ad000480090000000e800400498009801780029
:104ae000120020008000eb0018009000030001007d
:104af00000057800b0022000800f5500030032004e
:104b00000080e800800f550017003a00ea779f0008
:104b1000d80090008100e9005104980048009000fe
:104b20000b0033000000e800400498009801780072
:104b3000120020008000eb0018009000030001002c
:104b4000000578007bfb2f008f85450008003700ab
:104b50000000e800400498007bfb2f008f85450093
:104b60000085eb00b20037006bfb2f008f854500fe
:104b700000032000800f550033003a00d800900059
:104b80008100e90051049800480090000c003300b7
:104b90000000e8004004980098017800120020000e
:104ba0008000eb0018009000030001000005780071
:104bb00080072000800f55000a00320004003700f3
:104bc0000000e80040049800ad00200065013700b7
:104bd000ad0020001cc0b30080052000800f5500f0
:104be00062013a0000c3b300805d780080c7b30063
:104bf000805d7800d80090008100e90051049800a1
:104c0000480090000a0033000000e80040049800cb
:104c100098017800120020008000eb00180090003e
:104c200003000100000578006d012000040037003a
:104c30000000e800400498006d0120000085eb00b2
:104c40000046eb0049013700e0062000800f5500c8
:104c500003003200e0042000800f550071003a008c
:104c6000e0c6b300805d7800d80090008100e900c4
:104c700051049800480090000f0133000000e80044
:104c80004004980098017800120020008000eb009a
:104c900018009000030001000005780010062000b5
:104ca000800f55000300320010042000800f5500d3
:104cb00007013a0010c6b300805d7800d80090006c
:104cc0008100e9005104980048009000fa00330088
:104cd0000000e800400498009801780012002000cd
:104ce0008000eb0018009000030001000005780030
:104cf00048009000e1062000810f550003003200bb
:104d0000e1042000810f550079003a00d80090009e
:104d10008100e900510498000c0033000000e80015
:104d20004004980098017800120020008000eb00f9
:104d300018009000030001000005780080022000a8
:104d4000800f550014003200030037000000e80017
:104d5000400498000b003700e10f450009003200c5
:104d6000480090000000e900400498009801780095
:104d70000001eb008a007800180090000300010099
:104d800026003700480090000000e9004004980029
:104d90000085eb0021003700d80090008100e90079
:104da0005104980048009000090033000000e8001a
:104db0004004980098017800120020008000eb0069
:104dc0001800900003000100000578000300370080
:104dd0000000e800400498000085eb000a0078001d
:104de000290207000000e000ebff3a00f005200078
:104df000800f5500e8ff320090022000800f550020
:104e00000600320048009000e10f4500b3003a0070
:104e10000000e90040049800bc003700e0c6b30081
:104e2000bd00370090062000800f550005003200bd
:104e3000ad0020000046eb0090042000800f5500dc
:104e4000ca003a0090c6b300805d7800d800900098
:104e50008100e9005104980048009000960033005a
:104e60000000e8004004980098017800120020003b
:104e70008000eb001800900003000100000578009e
:104e8000e0062000800f550003003200e0042000ff
:104e9000800f55008e003a00e0c6b300805d7800b8
:104ea000d80090008100e90051049800480090006b
:104eb000810033000000e800400498009801780069
:104ec000120020008000eb00180090000300010099
:104ed000000578004800900061062000810f550011
:104ee0000600320061042000810f550003003200eb
:104ef000e10f450079003a0080003700d8009000ab
:104f00008100e900510498000d0033000000e80022
:104f10004004980098017800120020008000eb0007
:104f20001800900003000100000578004800900080
:104f300091062000810f5500160032000400370052
:104f40000000e800400498000085eb000d003700e9
:104f500091042000810f55000e003200e10f450042
:104f6000080032000000e900400498009801780031
:104f70000001eb008a007800180090000300010097
:104f800064003700480090000000e90040049800e9
:104f900060003700d80090008100e90051049800bb
:104fa000450033000000e8004004980098017800b4
:104fb000120020008000eb001800900003000100a8
:104fc00000057800e0062000800f55000300320045
:104fd000e0042000800f55003d003a00d80090000a
:104fe0008100e9005104980048009000320033002d
:104ff0000000e800400498009801780012002000aa
:105000008000eb001800900003000100000578000c
:1050100090062000800f550003003200900420000d
:10502000800f55002a003a00d80090008100e90066
:1050300051049800480090001f0033000000e80071
:105040004004980098017800120020008000eb00d6
:1050500018009000030001000005780040072000c0
:10506000800f55000300320040052000800f5500de
:1050700017003a00d80090008100e9005104980020
:10508000480090000c0033000000e8004004980045
:1050900098017800120020008000eb0018009000ba
:1050a000030001000005780090072000800f5500e4
:1050b00004003a00170037000000e80040049800a0
:1050c0000e00370090052000800f550011003200bf
:1050d000e10f450009003200480090000000e9009f
:1050e00040049800980178000001eb008a007800e5
:1050f00018009000030001000400370048009000f1
:105100000000e900400498000085eb000046eb0039
:105110005a01370060c6b300805d78001cc0b30040
:1051200056013700d80090008100e9005104980032
:1051300048009000090033000000e8004004980097
:1051400098017800120020008000eb001800900009
:105150000300010000057800030037000000e800ac
:10516000400498000085eb001cc0b3000003200041
:10517000800f5500ebff32000c04e000010032000c
:10518000805d78008004eb000007eb001900370019
:1051900030022000800f570003003c008a5d780039
:1051a0000e07e800010037008904e800d8009000ed
:1051b0008100e90051049800480090000900330084
:1051c0000000e800400498009801780012002000d8
:1051d0008000eb001800900003000100000578003b
:1051e000030037000000e800400498000085eb0051
:1051f0001cc0b300e10f45001b0032000d01780018
:105200008a007800a077210051fa07000000e00032
:10521000dfff3a00e0022000800f550012003a0044
:105220008a5d7800d80090008100e9005104980060
:1052300048009000090033000000e8004004980096
:1052400098017800120020008000eb001800900008
:105250000300010000057800030037000000e800ab
:10526000400498000085eb000e00e00033003a0097
:10527000130037008904e900d80090008100e9009c
:105280005104980048009000090033000000e80035
:105290004004980098017800120020008000eb0084
:1052a000180090000300010000057800030037009b
:1052b0000000e800400498000085eb001cc0b3002b
:1052c00000032000800f5500eaff32000900e000d3
:1052d0001a003d00805d78008904e800170037005f
:1052e00030022000800f570002003c008a5d7800e9
:1052f0000e07e800d80090008100e90051049800f2
:1053000048009000090033000000e80040049800c5
:1053100098017800120020008000eb001800900037
:105320000300010000057800030037000000e800da
:10533000400498000085eb001cc0b300e10f45005d
:10534000060032000d0178008a007800a077210065
:10535000fff907000000e000e1ff3a000c04e00064
:105360006a003200ea8f560005003a00500620001d
:10537000800f550008003200500420000400370060
:1053800000072000800f55000300320000052000b8
:10539000800f55005d003a008a5d7800d8009000cb
:1053a0008100e90051049800480090001d0033007e
:1053b0000000e800400498009801780012002000e6
:1053c0008000eb0018009000030001000005780049
:1053d000b0022000800f550003003200d0022000f0
:1053e000800f550012003a008a5d7800d8009000c6
:1053f0008100e90051049800480090000900330042
:105400000000e80040049800980178001200200095
:105410008000eb00180090000300010000057800f8
:10542000030037000000e800400498000085eb000e
:105430000046eb0012003700d80090008100e90020
:105440005104980048009000090033000000e80073
:105450004004980098017800120020008000eb00c2
:1054600018009000030001000005780003003700d9
:105470000000e800400498000085eb001cc0b30069
:1054800000032000800f5500ebff32000c04e00009
:1054900002003200805d78001cc0b3000007eb0002
:1054a00016003700e70f570002003c008a5d7800c5
:1054b0000e07e800d80090008100e9005104980030
:1054c00048009000090033000000e8004004980004
:1054d00098017800120020008000eb001800900076
:1054e0000300010000057800030037000000e80019
:1054f000400498000085eb001cc0b30000fd2f00a5
:105500000a004000e90f5000e6ff36004800900016
:10551000e10f4500080032000000e9004004980057
:10552000980178000001eb008a00780018009000d4
:1055300003000100020037000000e9004004980069
:105540000c04e00008003a000000eb0061fb2f00b3
:105550008f804000818f550042003a00e10f4500e6
:1055600040003a003e003700804deb00e8489000d4
:10557000100020000104e0003a003a00ea8f5600d3
:105580000a003c006149b9008000eb0060fb2f007d
:105590000f004000cc030700f0979f00819f9f0001
:1055a000929f9f00a39f9f000e0037006011b800dc
:1055b0008000eb0060fb2f000f004000c2030700db
:1055c000f0979f00819f9f00929f9f00a39f9f0045
